{
  "contractName": "Bet",
  "abi": [
    {
      "constant": true,
      "inputs": [],
      "name": "oracle",
      "outputs": [
        {
          "name": "",
          "type": "address"
        }
      ],
      "payable": false,
      "stateMutability": "view",
      "type": "function"
    },
    {
      "constant": true,
      "inputs": [],
      "name": "owner",
      "outputs": [
        {
          "name": "",
          "type": "address"
        }
      ],
      "payable": false,
      "stateMutability": "view",
      "type": "function"
    },
    {
      "payable": true,
      "stateMutability": "payable",
      "type": "fallback"
    },
    {
      "constant": false,
      "inputs": [
        {
          "name": "_outcomes",
          "type": "uint256[]"
        }
      ],
      "name": "Betting",
      "outputs": [],
      "payable": false,
      "stateMutability": "nonpayable",
      "type": "function"
    },
    {
      "constant": false,
      "inputs": [
        {
          "name": "_oracle",
          "type": "address"
        }
      ],
      "name": "chooseOracle",
      "outputs": [
        {
          "name": "",
          "type": "address"
        }
      ],
      "payable": false,
      "stateMutability": "nonpayable",
      "type": "function"
    },
    {
      "constant": false,
      "inputs": [
        {
          "name": "_outcome",
          "type": "uint256"
        }
      ],
      "name": "makeBet",
      "outputs": [
        {
          "name": "",
          "type": "bool"
        }
      ],
      "payable": true,
      "stateMutability": "payable",
      "type": "function"
    },
    {
      "constant": false,
      "inputs": [
        {
          "name": "_outcome",
          "type": "uint256"
        }
      ],
      "name": "makeDecision",
      "outputs": [],
      "payable": false,
      "stateMutability": "nonpayable",
      "type": "function"
    },
    {
      "constant": false,
      "inputs": [
        {
          "name": "withdrawAmount",
          "type": "uint256"
        }
      ],
      "name": "withdraw",
      "outputs": [
        {
          "name": "",
          "type": "uint256"
        }
      ],
      "payable": false,
      "stateMutability": "nonpayable",
      "type": "function"
    },
    {
      "constant": true,
      "inputs": [
        {
          "name": "outcome",
          "type": "uint256"
        }
      ],
      "name": "checkOutcomes",
      "outputs": [
        {
          "name": "",
          "type": "uint256"
        }
      ],
      "payable": false,
      "stateMutability": "view",
      "type": "function"
    },
    {
      "constant": true,
      "inputs": [],
      "name": "checkWinnings",
      "outputs": [
        {
          "name": "",
          "type": "uint256"
        }
      ],
      "payable": false,
      "stateMutability": "view",
      "type": "function"
    },
    {
      "constant": false,
      "inputs": [],
      "name": "contractReset",
      "outputs": [],
      "payable": false,
      "stateMutability": "nonpayable",
      "type": "function"
    },
    {
      "constant": false,
      "inputs": [],
      "name": "getBalances",
      "outputs": [
        {
          "name": "",
          "type": "uint256"
        }
      ],
      "payable": false,
      "stateMutability": "nonpayable",
      "type": "function"
    }
  ],
  "bytecode": "0x6060604052341561000f57600080fd5b6110b18061001e6000396000f3006060604052600436106100ae576000357c0100000000000000000000000000000000000000000000000000000000900463ffffffff168062113e08146100b35780632e1a7d4d146100dc5780635ee715d6146101135780635f012e2f1461013c5780636d0b502f14610196578063718cc769146101cd5780637dc0d1d0146101fd57806380c1367e146102525780638da5cb5b14610275578063a7a5ce88146102ca578063d0aa7e25146102df575b600080fd5b34156100be57600080fd5b6100c6610358565b6040518082815260200191505060405180910390f35b34156100e757600080fd5b6100fd60048080359060200190919050506103a2565b6040518082815260200191505060405180910390f35b341561011e57600080fd5b6101266104e8565b6040518082815260200191505060405180910390f35b341561014757600080fd5b6101946004808035906020019082018035906020019080806020026020016040519081016040528093929190818152602001838360200280828437820191505050505050919050506105b6565b005b34156101a157600080fd5b6101b76004808035906020019091905050610681565b6040518082815260200191505060405180910390f35b6101e360048080359060200190919050506106cf565b604051808215151515815260200191505060405180910390f35b341561020857600080fd5b6102106108ab565b604051808273ffffffffffffffffffffffffffffffffffffffff1673ffffffffffffffffffffffffffffffffffffffff16815260200191505060405180910390f35b341561025d57600080fd5b61027360048080359060200190919050506108d1565b005b341561028057600080fd5b610288610c44565b604051808273ffffffffffffffffffffffffffffffffffffffff1673ffffffffffffffffffffffffffffffffffffffff16815260200191505060405180910390f35b34156102d557600080fd5b6102dd610c69565b005b34156102ea57600080fd5b610316600480803573ffffffffffffffffffffffffffffffffffffffff16906020019091905050610cc6565b604051808273ffffffffffffffffffffffffffffffffffffffff1673ffffffffffffffffffffffffffffffffffffffff16815260200191505060405180910390f35b6000600a60003373ffffffffffffffffffffffffffffffffffffffff1673ffffffffffffffffffffffffffffffffffffffff16815260200190815260200160002060000154905090565b6000600a60003373ffffffffffffffffffffffffffffffffffffffff1673ffffffffffffffffffffffffffffffffffffffff16815260200190815260200160002060010160009054906101000a900460ff1680156104455750600082600a60003373ffffffffffffffffffffffffffffffffffffffff1673ffffffffffffffffffffffffffffffffffffffff168152602001908152602001600020600001540310155b156104de573373ffffffffffffffffffffffffffffffffffffffff166108fc839081150290604051600060405180830381858888f19350505050156104dd5781600a60003373ffffffffffffffffffffffffffffffffffffffff1673ffffffffffffffffffffffffffffffffffffffff16815260200190815260200160002060000160008282540392505081905550600190506104e3565b5b600090505b919050565b600060011515600860003373ffffffffffffffffffffffffffffffffffffffff1673ffffffffffffffffffffffffffffffffffffffff16815260200190815260200160002060020160009054906101000a900460ff1615151480156105a0575060011515600860003373ffffffffffffffffffffffffffffffffffffffff1673ffffffffffffffffffffffffffffffffffffffff16815260200190815260200160002060020160019054906101000a900460ff161515145b156105ae57600190506105b3565b600090505b90565b600080600581905550336000806101000a81548173ffffffffffffffffffffffffffffffffffffffff021916908373ffffffffffffffffffffffffffffffffffffffff160217905550600090505b815181101561065a57818181518110151561061b57fe5b90602001906020020151600960008381526020019081526020016000208190555060016005600082825401925050819055508080600101915050610604565b6001600360006101000a81548160ff02191690831515021790555060006004819055505050565b600080600090505b6005548110156106c45760096000828152602001908152602001600020548314156106b757600191506106c9565b8080600101915050610689565b600091505b50919050565b60006106da33610d84565b80156106eb57506106ea33610ddf565b5b80156106fc57506106fb33610e39565b5b156108a1573360076000600654815260200190815260200160002060006101000a81548173ffffffffffffffffffffffffffffffffffffffff021916908373ffffffffffffffffffffffffffffffffffffffff1602179055506001600a60003373ffffffffffffffffffffffffffffffffffffffff1673ffffffffffffffffffffffffffffffffffffffff16815260200190815260200160002060010160006101000a81548160ff021916908315150217905550600160066000828254019250508190555060806040519081016040528083815260200134815260200160001515815260200160001515815250600860003373ffffffffffffffffffffffffffffffffffffffff1673ffffffffffffffffffffffffffffffffffffffff168152602001908152602001600020600082015181600001556020820151816001015560408201518160020160006101000a81548160ff02191690831515021790555060608201518160020160016101000a81548160ff0219169083151502179055509050503460026000828254019250508190555061089882610eaa565b600190506108a6565b600090505b919050565b600160009054906101000a900473ffffffffffffffffffffffffffffffffffffffff1681565b60008060008060009350600092506108e7610eec565b1515610c3d57600091505b600654821015610a085784600860006007600086815260200190815260200160002060009054906101000a900473ffffffffffffffffffffffffffffffffffffffff1673ffffffffffffffffffffffffffffffffffffffff1673ffffffffffffffffffffffffffffffffffffffff168152602001908152602001600020600001541415156109fb57600860006007600085815260200190815260200160002060009054906101000a900473ffffffffffffffffffffffffffffffffffffffff1673ffffffffffffffffffffffffffffffffffffffff1673ffffffffffffffffffffffffffffffffffffffff16815260200190815260200160002060010154840193506001830192505b81806001019250506108f2565b826005540384811515610a1757fe5b049050600091505b600654821015610c3c5784600860006007600086815260200190815260200160002060009054906101000a900473ffffffffffffffffffffffffffffffffffffffff1673ffffffffffffffffffffffffffffffffffffffff1673ffffffffffffffffffffffffffffffffffffffff168152602001908152602001600020600001541415610c2f5780600860006007600086815260200190815260200160002060009054906101000a900473ffffffffffffffffffffffffffffffffffffffff1673ffffffffffffffffffffffffffffffffffffffff1673ffffffffffffffffffffffffffffffffffffffff1681526020019081526020016000206001015401600a60006007600086815260200190815260200160002060009054906101000a900473ffffffffffffffffffffffffffffffffffffffff1673ffffffffffffffffffffffffffffffffffffffff1673ffffffffffffffffffffffffffffffffffffffff168152602001908152602001600020600001600082825401925050819055506001600860006007600086815260200190815260200160002060009054906101000a900473ffffffffffffffffffffffffffffffffffffffff1673ffffffffffffffffffffffffffffffffffffffff1673ffffffffffffffffffffffffffffffffffffffff16815260200190815260200160002060020160016101000a81548160ff0219169083151502179055505b8180600101925050610a1f565b5b5050505050565b6000809054906101000a900473ffffffffffffffffffffffffffffffffffffffff1681565b6000809054906101000a900473ffffffffffffffffffffffffffffffffffffffff1673ffffffffffffffffffffffffffffffffffffffff163373ffffffffffffffffffffffffffffffffffffffff16141515610cc457600080fd5b565b60008060009054906101000a900473ffffffffffffffffffffffffffffffffffffffff1673ffffffffffffffffffffffffffffffffffffffff163373ffffffffffffffffffffffffffffffffffffffff16141515610d2357600080fd5b610d2c82611013565b15610d7a5781600160006101000a81548173ffffffffffffffffffffffffffffffffffffffff021916908373ffffffffffffffffffffffffffffffffffffffff160217905550819050610d7f565b600090505b919050565b6000600160009054906101000a900473ffffffffffffffffffffffffffffffffffffffff1673ffffffffffffffffffffffffffffffffffffffff168273ffffffffffffffffffffffffffffffffffffffff1614159050919050565b60008173ffffffffffffffffffffffffffffffffffffffff166000809054906101000a900473ffffffffffffffffffffffffffffffffffffffff1673ffffffffffffffffffffffffffffffffffffffff1614159050919050565b600060011515600860008473ffffffffffffffffffffffffffffffffffffffff1673ffffffffffffffffffffffffffffffffffffffff16815260200190815260200160002060020160009054906101000a900460ff1615151415610ea05760009050610ea5565b600190505b919050565b60006004541415610ec15780600481905550610ee9565b80600454141515610ee8576000600360006101000a81548160ff0219169083151502179055505b5b50565b600080610ef761106d565b151561100a57600090505b600654811015611001576007600082815260200190815260200160002060009054906101000a900473ffffffffffffffffffffffffffffffffffffffff1673ffffffffffffffffffffffffffffffffffffffff166108fc600860006007600086815260200190815260200160002060009054906101000a900473ffffffffffffffffffffffffffffffffffffffff1673ffffffffffffffffffffffffffffffffffffffff1673ffffffffffffffffffffffffffffffffffffffff168152602001908152602001600020600101549081150290604051600060405180830381858888f193505050501515610ff457600080fd5b8080600101915050610f02565b6001915061100f565b600091505b5090565b60008060009054906101000a900473ffffffffffffffffffffffffffffffffffffffff1673ffffffffffffffffffffffffffffffffffffffff168273ffffffffffffffffffffffffffffffffffffffff1614159050919050565b6000600360009054906101000a900460ff16159050905600a165627a7a7230582053cbfa170e2de5f0e6beeada66c49b120ca32e82bb61df503838c8c1224fb0230029",
  "source": "pragma solidity 0.4.19;\ncontract Bet {\n    \n    //only one owner, defined when contract is created\n    // define outcomes at start\n    function Betting(uint[] _outcomes) public {\n        outcomesCount = 0;\n        owner = msg.sender;\n        for (uint i = 0; i < _outcomes.length; i++) {\n            outcomes[i] = _outcomes[i];\n            outcomesCount += 1;\n        }\n        sameLastOutcome = true;\n        lastOutcome = 0;\n    }\n    /* Fallback function */\n    function() public payable {\n        revert();\n    }\n    struct Bet {\n        uint outcome;\n        uint amount;\n        bool initialized;\n        bool won;\n    }\n    struct Balance {\n        uint value;\n        bool initialized;\n    }\n    address public owner;\n    address public oracle;\n    uint private balance;\n    // false is some gamblers bet different\n    bool private sameLastOutcome;\n    // last bet class bet\n    uint private lastOutcome;\n    uint private outcomesCount;\n    uint private addressesCount;\n    mapping (uint => address) addresses;\n    mapping (address => Bet) bets;\n    mapping(uint => uint) outcomes;\n    mapping(address => Balance) balances;\n    /* Uh Oh, what are these? */\n    modifier ownerOnly() {\n        require(msg.sender == owner);\n        _;\n    }\n    modifier oracleOnly() {\n        require(msg.sender == oracle);\n        _;\n    }\n    modifier outcomeExists(uint outcome) {\n        bool exists = false;\n        for (uint i = 0; i < outcomesCount; i++) {\n            if (outcome == outcomes[i]) {\n                exists = true;\n                break;\n            }\n        }\n        require(exists == true);\n        _;\n    }\n        \n    // integrity check, gambler can only bet once\n    // if address already exist in contract, have already bet\n    function checkGamblerCanBet(address gambler) view private returns (bool) {\n        if (bets[gambler].initialized == true) {\n            return false;\n        }\n        return true;\n    }\n    \n    // integrity check, owner cannot bet\n    function checkGamblerIsNotOwner(address gambler) view private returns (bool) {\n        return (owner != gambler);\n    }\n    \n    // integrity check, oracle cannot be gambler\n    function checkGamblerIsNotOracle(address gambler) view private returns (bool) {\n        return (gambler != oracle);\n    }\n    \n    // integrity check, oracle is not owner\n    function checkOracleIsNotOwner(address newOracle) view private returns (bool) {\n        return (newOracle != owner);\n    }\n    \n    //\n    function comparelastOutcome(uint outcome) private {\n        if (lastOutcome == 0) {\n            lastOutcome = outcome;\n        } else if (lastOutcome != outcome) {\n            sameLastOutcome = false;\n        }\n    }\n    \n    // bet check, all gamblers did not bet in the same\n    function checkGamblersDontBetInTheSame() view private returns (bool) {\n        return !sameLastOutcome;\n    }\n    /* Owner chooses their trusted Oracle */\n    // define oracle, only by owner, returns true if success, false otherwise\n    function chooseOracle(address _oracle) public ownerOnly() returns (address) {\n        // check new oracle is not owner and message sent by owner\n        if (checkOracleIsNotOwner(_oracle)) {\n            oracle = _oracle;\n            return _oracle;\n        }\n        return 0;\n    }\n    \n    /* Gamblers place their bets, preferably after calling checkOutcomes */\n    // make bet, returns true if bet was made, false otherwise\n    function makeBet(uint _outcome) payable public returns (bool) {\n        // check if gambler is not owner nor oracle, and gambler can bet (didn't bet before)\n        if (checkGamblerIsNotOracle(msg.sender) && \n            checkGamblerIsNotOwner(msg.sender) && checkGamblerCanBet(msg.sender)) {\n            \n            // if address exists, add to balance\n            // if not, create an address and add to balance\n            addresses[addressesCount] = msg.sender;\n            //balances[msg.sender].value += msg.value;\n            balances[msg.sender].initialized = true;\n            addressesCount += 1;\n            bets[msg.sender] = Bet(_outcome, msg.value, false, false);\n            balance += msg.value;\n            // compare bet class with last bet class and change data\n            comparelastOutcome(_outcome);\n            \n            return true;\n        }\n        return false;\n    }\n    // bet rule, if gambler bet in the same reimburse all the funds\n    function oracleHasToReturnFunds() private returns (bool) {\n        if (!checkGamblersDontBetInTheSame()) {\n            for (uint i = 0; i < addressesCount; i++) {\n                addresses[i].transfer(bets[addresses[i]].amount);\n            }\n            return true;\n        }\n        return false;\n    }\n    // oracle chooses, check if has to return equal funds\n    // it is not efficient, TO DO\n    function makeDecision(uint _outcome) public {\n        uint poolBalance = 0;\n        uint loserGamblers = 0;\n        // if bets are in different outcomes\n        if (!oracleHasToReturnFunds()) {\n            // put eth in each winner balance\n            \n            for (uint i = 0; i < addressesCount; i++) {\n                if (bets[addresses[i]].outcome != _outcome) {\n                    poolBalance += bets[addresses[i]].amount;\n                    loserGamblers += 1;\n                }\n                //balances[addresses[i]].value += bets[addresses[i]].amount;\n            }\n            uint dividedLeftBalance = poolBalance / (outcomesCount - loserGamblers);\n            for (i = 0; i < addressesCount; i++) {\n                if (bets[addresses[i]].outcome == _outcome) {\n                    balances[addresses[i]].value += bets[addresses[i]].amount + dividedLeftBalance;\n                    bets[addresses[i]].won = true;\n                }\n            }\n        }\n    }\n    /* Allow anyone to withdraw their winnings safely (if they have enough) */\n    function withdraw(uint withdrawAmount) public returns (uint) {\n        if (balances[msg.sender].initialized && balances[msg.sender].value - withdrawAmount >= 0) {\n            if (msg.sender.send(withdrawAmount)) {\n                balances[msg.sender].value -= withdrawAmount;\n                return 1;\n            }\n        }\n        return 0;\n    }\n    /* Allow anyone to check the outcomes they can bet on */\n    function checkOutcomes(uint outcome) public view returns (uint) {\n        for (uint i = 0; i < outcomesCount; i++) {\n            if (outcome == outcomes[i]) {\n                return 1;\n            }\n        }\n        return 0;\n    }\n    \n    /* Allow anyone to check if they won any bets */\n    function checkWinnings() public view returns(uint) {\n        if (bets[msg.sender].initialized == true && bets[msg.sender].won == true) {\n            return 1;\n        }\n        return 0;\n    }\n    /* Call delete() to reset certain state variables. Which ones? That's upto you to decide */\n    function contractReset() public ownerOnly() {\n    }\n    function getBalances() public returns(uint) {\n        return balances[msg.sender].value;\n    }\n         \n}",
  "sourcePath": "/Users/georgesu/Desktop/CS198/sp18-lab02/Betting Contract/contracts/bet.sol",
  "compiler": {
    "name": "solc",
    "version": "0.4.19+commit.c4cbbb05.Emscripten.clang"
  },
  "schemaVersion": "1.0.1",
  "updatedAt": "2018-02-24T04:16:06.790Z"
}