{
  "contractName": "Betting",
  "abi": [
    {
      "constant": true,
      "inputs": [],
      "name": "gamblerB",
      "outputs": [
        {
          "name": "",
          "type": "address"
        }
      ],
      "payable": false,
      "stateMutability": "view",
      "type": "function"
    },
    {
      "constant": true,
      "inputs": [],
      "name": "gamblerA",
      "outputs": [
        {
          "name": "",
          "type": "address"
        }
      ],
      "payable": false,
      "stateMutability": "view",
      "type": "function"
    },
    {
      "constant": true,
      "inputs": [],
      "name": "oracle",
      "outputs": [
        {
          "name": "",
          "type": "address"
        }
      ],
      "payable": false,
      "stateMutability": "view",
      "type": "function"
    },
    {
      "constant": true,
      "inputs": [],
      "name": "numOutcomes",
      "outputs": [
        {
          "name": "",
          "type": "uint256"
        }
      ],
      "payable": false,
      "stateMutability": "view",
      "type": "function"
    },
    {
      "constant": true,
      "inputs": [],
      "name": "owner",
      "outputs": [
        {
          "name": "",
          "type": "address"
        }
      ],
      "payable": false,
      "stateMutability": "view",
      "type": "function"
    },
    {
      "constant": true,
      "inputs": [
        {
          "name": "",
          "type": "uint256"
        }
      ],
      "name": "outcomes",
      "outputs": [
        {
          "name": "",
          "type": "uint256"
        }
      ],
      "payable": false,
      "stateMutability": "view",
      "type": "function"
    },
    {
      "inputs": [
        {
          "name": "_outcomes",
          "type": "uint256[]"
        }
      ],
      "payable": false,
      "stateMutability": "nonpayable",
      "type": "constructor"
    },
    {
      "payable": true,
      "stateMutability": "payable",
      "type": "fallback"
    },
    {
      "anonymous": false,
      "inputs": [
        {
          "indexed": false,
          "name": "gambler",
          "type": "address"
        }
      ],
      "name": "BetMade",
      "type": "event"
    },
    {
      "anonymous": false,
      "inputs": [],
      "name": "BetClosed",
      "type": "event"
    },
    {
      "constant": false,
      "inputs": [
        {
          "name": "_oracle",
          "type": "address"
        }
      ],
      "name": "chooseOracle",
      "outputs": [
        {
          "name": "",
          "type": "address"
        }
      ],
      "payable": false,
      "stateMutability": "nonpayable",
      "type": "function"
    },
    {
      "constant": false,
      "inputs": [
        {
          "name": "_outcome",
          "type": "uint256"
        }
      ],
      "name": "makeBet",
      "outputs": [
        {
          "name": "",
          "type": "bool"
        }
      ],
      "payable": true,
      "stateMutability": "payable",
      "type": "function"
    },
    {
      "constant": false,
      "inputs": [
        {
          "name": "_outcome",
          "type": "uint256"
        }
      ],
      "name": "makeDecision",
      "outputs": [],
      "payable": false,
      "stateMutability": "nonpayable",
      "type": "function"
    },
    {
      "constant": false,
      "inputs": [
        {
          "name": "withdrawAmount",
          "type": "uint256"
        }
      ],
      "name": "withdraw",
      "outputs": [
        {
          "name": "",
          "type": "uint256"
        }
      ],
      "payable": false,
      "stateMutability": "nonpayable",
      "type": "function"
    },
    {
      "constant": true,
      "inputs": [],
      "name": "checkWinnings",
      "outputs": [
        {
          "name": "",
          "type": "uint256"
        }
      ],
      "payable": false,
      "stateMutability": "view",
      "type": "function"
    },
    {
      "constant": false,
      "inputs": [],
      "name": "contractReset",
      "outputs": [],
      "payable": false,
      "stateMutability": "nonpayable",
      "type": "function"
    }
  ],
  "bytecode": "0x6060604052341561000f57600080fd5b60405161113f38038061113f833981016040528080518201919050506000336000806101000a81548173ffffffffffffffffffffffffffffffffffffffff021916908373ffffffffffffffffffffffffffffffffffffffff1602179055506000600481905550600090505b81518110156100d157818181518110151561009157fe5b906020019060200201516007600083815260200190815260200160002081905550600460008154809291906001019190505550808060010191505061007a565b505061105d806100e26000396000f3006060604052600436106100ba576000357c0100000000000000000000000000000000000000000000000000000000900463ffffffff168063113023ca146100bf5780631def0573146101145780632e1a7d4d146101695780635ee715d6146101a0578063718cc769146101c95780637dc0d1d0146101f957806380c1367e1461024e5780638767d64e146102715780638da5cb5b1461029a578063a7a5ce88146102ef578063d0aa7e2514610304578063eed2a1471461037d575b600080fd5b34156100ca57600080fd5b6100d26103b4565b604051808273ffffffffffffffffffffffffffffffffffffffff1673ffffffffffffffffffffffffffffffffffffffff16815260200191505060405180910390f35b341561011f57600080fd5b6101276103da565b604051808273ffffffffffffffffffffffffffffffffffffffff1673ffffffffffffffffffffffffffffffffffffffff16815260200191505060405180910390f35b341561017457600080fd5b61018a6004808035906020019091905050610400565b6040518082815260200191505060405180910390f35b34156101ab57600080fd5b6101b361049a565b6040518082815260200191505060405180910390f35b6101df60048080359060200190919050506104e1565b604051808215151515815260200191505060405180910390f35b341561020457600080fd5b61020c610949565b604051808273ffffffffffffffffffffffffffffffffffffffff1673ffffffffffffffffffffffffffffffffffffffff16815260200191505060405180910390f35b341561025957600080fd5b61026f600480803590602001909190505061096f565b005b341561027c57600080fd5b610284610da6565b6040518082815260200191505060405180910390f35b34156102a557600080fd5b6102ad610dac565b604051808273ffffffffffffffffffffffffffffffffffffffff1673ffffffffffffffffffffffffffffffffffffffff16815260200191505060405180910390f35b34156102fa57600080fd5b610302610dd1565b005b341561030f57600080fd5b61033b600480803573ffffffffffffffffffffffffffffffffffffffff16906020019091905050610e78565b604051808273ffffffffffffffffffffffffffffffffffffffff1673ffffffffffffffffffffffffffffffffffffffff16815260200191505060405180910390f35b341561038857600080fd5b61039e6004808035906020019091905050611019565b6040518082815260200191505060405180910390f35b600260009054906101000a900473ffffffffffffffffffffffffffffffffffffffff1681565b600160009054906101000a900473ffffffffffffffffffffffffffffffffffffffff1681565b600081600660003373ffffffffffffffffffffffffffffffffffffffff1673ffffffffffffffffffffffffffffffffffffffff1681526020019081526020016000205410151561048f573373ffffffffffffffffffffffffffffffffffffffff166108fc839081150290604051600060405180830381858888f19350505050151561048a57600080fd5b610494565b610495565b5b919050565b6000600660003373ffffffffffffffffffffffffffffffffffffffff1673ffffffffffffffffffffffffffffffffffffffff16815260200190815260200160002054905090565b600080600160009054906101000a900473ffffffffffffffffffffffffffffffffffffffff1673ffffffffffffffffffffffffffffffffffffffff1614156106a55733600160006101000a81548173ffffffffffffffffffffffffffffffffffffffff021916908373ffffffffffffffffffffffffffffffffffffffff1602179055506060604051908101604052808381526020013481526020016001151581525060056000600160009054906101000a900473ffffffffffffffffffffffffffffffffffffffff1673ffffffffffffffffffffffffffffffffffffffff1673ffffffffffffffffffffffffffffffffffffffff168152602001908152602001600020600082015181600001556020820151816001015560408201518160020160006101000a81548160ff0219169083151502179055509050507fdcd2da66e8984bfcbbe0c67e276d4409dc4f49b29be35637f00eb421e60c010f600160009054906101000a900473ffffffffffffffffffffffffffffffffffffffff16604051808273ffffffffffffffffffffffffffffffffffffffff1673ffffffffffffffffffffffffffffffffffffffff16815260200191505060405180910390a1610943565b6000600260009054906101000a900473ffffffffffffffffffffffffffffffffffffffff1673ffffffffffffffffffffffffffffffffffffffff16141561091157600160009054906101000a900473ffffffffffffffffffffffffffffffffffffffff1673ffffffffffffffffffffffffffffffffffffffff16600260009054906101000a900473ffffffffffffffffffffffffffffffffffffffff1673ffffffffffffffffffffffffffffffffffffffff16141561078f577f077212d4d7a1f32f5a1799a3b05e05b15f3ad33584b11615f0b68d9c4c03fd6260405160405180910390a1610944565b33600260006101000a81548173ffffffffffffffffffffffffffffffffffffffff021916908373ffffffffffffffffffffffffffffffffffffffff1602179055506060604051908101604052808381526020013481526020016001151581525060056000600260009054906101000a900473ffffffffffffffffffffffffffffffffffffffff1673ffffffffffffffffffffffffffffffffffffffff1673ffffffffffffffffffffffffffffffffffffffff168152602001908152602001600020600082015181600001556020820151816001015560408201518160020160006101000a81548160ff0219169083151502179055509050507fdcd2da66e8984bfcbbe0c67e276d4409dc4f49b29be35637f00eb421e60c010f600260009054906101000a900473ffffffffffffffffffffffffffffffffffffffff16604051808273ffffffffffffffffffffffffffffffffffffffff1673ffffffffffffffffffffffffffffffffffffffff16815260200191505060405180910390a1610942565b7f077212d4d7a1f32f5a1799a3b05e05b15f3ad33584b11615f0b68d9c4c03fd6260405160405180910390a1610944565b5b5b919050565b600360009054906101000a900473ffffffffffffffffffffffffffffffffffffffff1681565b600360009054906101000a900473ffffffffffffffffffffffffffffffffffffffff1673ffffffffffffffffffffffffffffffffffffffff163373ffffffffffffffffffffffffffffffffffffffff161415156109cb57600080fd5b8060008060009150600090505b600454811015610a0f578260076000838152602001908152602001600020541415610a0257600191505b80806001019150506109d8565b60011515821515141515610a2257600080fd5b6001151560056000600160009054906101000a900473ffffffffffffffffffffffffffffffffffffffff1673ffffffffffffffffffffffffffffffffffffffff1673ffffffffffffffffffffffffffffffffffffffff16815260200190815260200160002060020160009054906101000a900460ff1615151415610be1578360056000600160009054906101000a900473ffffffffffffffffffffffffffffffffffffffff1673ffffffffffffffffffffffffffffffffffffffff1673ffffffffffffffffffffffffffffffffffffffff168152602001908152602001600020600001541415610be05760056000600160009054906101000a900473ffffffffffffffffffffffffffffffffffffffff1673ffffffffffffffffffffffffffffffffffffffff1673ffffffffffffffffffffffffffffffffffffffff1681526020019081526020016000206001015460066000600160009054906101000a900473ffffffffffffffffffffffffffffffffffffffff1673ffffffffffffffffffffffffffffffffffffffff1673ffffffffffffffffffffffffffffffffffffffff168152602001908152602001600020600082825401925050819055505b5b6001151560056000600260009054906101000a900473ffffffffffffffffffffffffffffffffffffffff1673ffffffffffffffffffffffffffffffffffffffff1673ffffffffffffffffffffffffffffffffffffffff16815260200190815260200160002060020160009054906101000a900460ff1615151415610da0578360056000600260009054906101000a900473ffffffffffffffffffffffffffffffffffffffff1673ffffffffffffffffffffffffffffffffffffffff1673ffffffffffffffffffffffffffffffffffffffff168152602001908152602001600020600001541415610d9f5760056000600260009054906101000a900473ffffffffffffffffffffffffffffffffffffffff1673ffffffffffffffffffffffffffffffffffffffff1673ffffffffffffffffffffffffffffffffffffffff1681526020019081526020016000206001015460066000600260009054906101000a900473ffffffffffffffffffffffffffffffffffffffff1673ffffffffffffffffffffffffffffffffffffffff1673ffffffffffffffffffffffffffffffffffffffff168152602001908152602001600020600082825401925050819055505b5b50505050565b60045481565b6000809054906101000a900473ffffffffffffffffffffffffffffffffffffffff1681565b6000809054906101000a900473ffffffffffffffffffffffffffffffffffffffff1673ffffffffffffffffffffffffffffffffffffffff163373ffffffffffffffffffffffffffffffffffffffff16141515610e2c57600080fd5b600160006101000a81549073ffffffffffffffffffffffffffffffffffffffff0219169055600260006101000a81549073ffffffffffffffffffffffffffffffffffffffff0219169055565b60008060009054906101000a900473ffffffffffffffffffffffffffffffffffffffff1673ffffffffffffffffffffffffffffffffffffffff163373ffffffffffffffffffffffffffffffffffffffff16141515610ed557600080fd5b600160009054906101000a900473ffffffffffffffffffffffffffffffffffffffff1673ffffffffffffffffffffffffffffffffffffffff16600360009054906101000a900473ffffffffffffffffffffffffffffffffffffffff1673ffffffffffffffffffffffffffffffffffffffff1614151515610f5457600080fd5b600260009054906101000a900473ffffffffffffffffffffffffffffffffffffffff1673ffffffffffffffffffffffffffffffffffffffff16600360009054906101000a900473ffffffffffffffffffffffffffffffffffffffff1673ffffffffffffffffffffffffffffffffffffffff1614151515610fd357600080fd5b81600360006101000a81548173ffffffffffffffffffffffffffffffffffffffff021916908373ffffffffffffffffffffffffffffffffffffffff160217905550919050565b600760205280600052604060002060009150905054815600a165627a7a7230582025b880bb13a3aba41002dbfdd19ec82548905d677da3710529e2ca0fb39c292b0029",
  "source": "pragma solidity ^0.4.19;\n\n\ncontract Betting {\n    /* Constructor function, where owner and outcomes are set */\n    function Betting(uint[] _outcomes) public {\n        owner = msg.sender;\n        numOutcomes = 0;\n        for (uint i=0; i < _outcomes.length; i++) {\n            outcomes[i] = _outcomes[i];\n            numOutcomes++;\n        }\n    }\n\n    /* Fallback function */\n    function() public payable {\n        revert();\n    }\n\n    /* Standard state variables */\n    address public owner;\n    address public gamblerA;\n    address public gamblerB;\n    address public oracle;\n    uint public numOutcomes;\n\n    /* Structs are custom data structures with self-defined parameters */\n    struct Bet {\n        uint outcome;\n        uint amount;\n        bool initialized;\n    }\n\n    /* Keep track of every gambler's bet */\n    mapping (address => Bet) bets;\n    /* Keep track of every player's winnings (if any) */\n    mapping (address => uint) winnings;\n    /* Keep track of all outcomes (maps index to numerical outcome) */\n    mapping (uint => uint) public outcomes;\n\n    /* Add any events you think are necessary */\n    event BetMade(address gambler);\n    event BetClosed();\n\n    /* Uh Oh, what are these? */\n    modifier ownerOnly() {\n        require(msg.sender == owner);\n        _;\n    }\n    modifier oracleOnly() {\n        require(msg.sender == oracle);\n        _;\n    }\n    modifier outcomeExists(uint outcome) {\n        bool exists = false;\n        for (uint i=0; i < numOutcomes; i++) {\n            if (outcomes[i] == outcome) {\n                exists = true;\n            }\n        }\n        require(exists == true);\n        _;\n    }\n\n    /* Owner chooses their trusted Oracle */\n    function chooseOracle(address _oracle) public ownerOnly() returns (address) {\n        require(oracle != gamblerA);\n        require(oracle != gamblerB);\n        oracle = _oracle;\n    }\n\n    /* Gamblers place their bets, preferably after calling checkOutcomes */\n    function makeBet(uint _outcome) public payable returns (bool) {\n        // checkOutcomes(_outcome);\n        if (gamblerA == 0) {\n            gamblerA = msg.sender;\n            bets[gamblerA] = Bet(_outcome, msg.value, true);\n            BetMade(gamblerA);\n        } else if (gamblerB == 0) {\n            if (gamblerB == gamblerA) {\n                BetClosed();\n                return;\n            }\n            gamblerB = msg.sender;\n            bets[gamblerB] = Bet(_outcome, msg.value, true);\n            BetMade(gamblerB);\n        } else {\n            BetClosed();\n            return;\n        }\n    }\n\n    /* The oracle chooses which outcome wins */\n    function makeDecision(uint _outcome) public oracleOnly() outcomeExists(_outcome) {\n        if (bets[gamblerA].initialized == true) {\n            if (bets[gamblerA].outcome == _outcome) {\n                winnings[gamblerA] += bets[gamblerA].amount;\n            }\n        }\n        if (bets[gamblerB].initialized == true) {\n            if (bets[gamblerB].outcome == _outcome) {\n                winnings[gamblerB] += bets[gamblerB].amount;\n            }\n        }\n    }\n\n    /* Allow anyone to withdraw their winnings safely (if they have enough) */\n    function withdraw(uint withdrawAmount) public returns (uint) {\n        if (winnings[msg.sender] >= withdrawAmount ) {\n            msg.sender.transfer(withdrawAmount);\n        } else {\n            return;\n        }\n    }\n    \n    // /* Allow anyone to check the outcomes they can bet on */\n    // function checkOutcomes(uint outcome) public view returns (uint) {\n    // }\n    \n    /* Allow anyone to check if they won any bets */\n    function checkWinnings() public view returns(uint) {\n        return winnings[msg.sender];\n    }\n\n    /* Call delete() to reset certain state variables. Which ones? That's upto you to decide */\n    function contractReset() public ownerOnly() {\n        delete gamblerA;\n        delete gamblerB;\n    }\n}",
  "sourcePath": "/Users/georgesu/Desktop/CS198/sp18-lab02/Betting Contract/contracts/betting.sol",
  "compiler": {
    "name": "solc",
    "version": "0.4.19+commit.c4cbbb05.Emscripten.clang"
  },
  "schemaVersion": "1.0.1",
  "updatedAt": "2018-02-24T05:07:41.457Z"
}